{
  "contract_address": "0xf7e275F9D7Cc69Db5718DFcE79cef373aF91D39B",
  "contractName": "AreaContract",
  "abi": [
    {
      "anonymous": false,
      "inputs": [
        {
          "indexed": false,
          "internalType": "bytes32",
          "name": "objId",
          "type": "bytes32"
        }
      ],
      "name": "Created",
      "type": "event"
    },
    {
      "anonymous": false,
      "inputs": [
        {
          "indexed": false,
          "internalType": "bytes32",
          "name": "objId",
          "type": "bytes32"
        }
      ],
      "name": "Updated",
      "type": "event"
    },
    {
      "inputs": [
        {
          "internalType": "uint256",
          "name": "",
          "type": "uint256"
        }
      ],
      "name": "dataList",
      "outputs": [
        {
          "internalType": "bytes32",
          "name": "",
          "type": "bytes32"
        }
      ],
      "stateMutability": "view",
      "type": "function"
    },
    {
      "inputs": [
        {
          "internalType": "bytes32",
          "name": "",
          "type": "bytes32"
        }
      ],
      "name": "dataMap",
      "outputs": [
        {
          "internalType": "bytes32",
          "name": "areaId",
          "type": "bytes32"
        },
        {
          "internalType": "string",
          "name": "name",
          "type": "string"
        },
        {
          "internalType": "bytes32",
          "name": "organizationId",
          "type": "bytes32"
        },
        {
          "internalType": "bool",
          "name": "isActive",
          "type": "bool"
        },
        {
          "internalType": "string",
          "name": "customJsonData",
          "type": "string"
        }
      ],
      "stateMutability": "view",
      "type": "function"
    },
    {
      "inputs": [],
      "name": "version",
      "outputs": [
        {
          "internalType": "uint256",
          "name": "",
          "type": "uint256"
        }
      ],
      "stateMutability": "view",
      "type": "function"
    },
    {
      "inputs": [
        {
          "internalType": "string",
          "name": "_name",
          "type": "string"
        },
        {
          "internalType": "bytes32",
          "name": "_organizationId",
          "type": "bytes32"
        },
        {
          "internalType": "string",
          "name": "_customJsonData",
          "type": "string"
        }
      ],
      "name": "create",
      "outputs": [
        {
          "internalType": "bytes32",
          "name": "objId",
          "type": "bytes32"
        }
      ],
      "stateMutability": "nonpayable",
      "type": "function"
    },
    {
      "inputs": [
        {
          "internalType": "bytes32",
          "name": "objId",
          "type": "bytes32"
        },
        {
          "internalType": "string",
          "name": "_name",
          "type": "string"
        },
        {
          "internalType": "bytes32",
          "name": "_organizationId",
          "type": "bytes32"
        },
        {
          "internalType": "string",
          "name": "_customJsonData",
          "type": "string"
        },
        {
          "internalType": "bool",
          "name": "_isActive",
          "type": "bool"
        }
      ],
      "name": "update",
      "outputs": [],
      "stateMutability": "nonpayable",
      "type": "function"
    },
    {
      "inputs": [
        {
          "internalType": "bytes32",
          "name": "objId",
          "type": "bytes32"
        }
      ],
      "name": "getById",
      "outputs": [
        {
          "internalType": "bytes32",
          "name": "id",
          "type": "bytes32"
        },
        {
          "internalType": "string",
          "name": "name",
          "type": "string"
        },
        {
          "internalType": "bytes32",
          "name": "organizationId",
          "type": "bytes32"
        },
        {
          "internalType": "bool",
          "name": "isActive",
          "type": "bool"
        },
        {
          "internalType": "string",
          "name": "customJsonData",
          "type": "string"
        }
      ],
      "stateMutability": "view",
      "type": "function"
    },
    {
      "inputs": [],
      "name": "getAll",
      "outputs": [
        {
          "internalType": "bytes32[]",
          "name": "ids",
          "type": "bytes32[]"
        }
      ],
      "stateMutability": "view",
      "type": "function"
    },
    {
      "inputs": [
        {
          "internalType": "bytes32",
          "name": "objId",
          "type": "bytes32"
        },
        {
          "internalType": "bool",
          "name": "_isActive",
          "type": "bool"
        }
      ],
      "name": "activate",
      "outputs": [],
      "stateMutability": "nonpayable",
      "type": "function"
    }
  ],
  "bytecode": "0x6080604052600160005534801561001557600080fd5b50610d50806100256000396000f3fe608060405234801561001057600080fd5b50600436106100885760003560e01c80639e59163c1161005b5780639e59163c1461035e578063af4a74cf146104ce578063c876257914610510578063f716bc251461054a57610088565b80632dff0d0d1461008d57806346bcad62146101b757806353ed5143146102e157806354fd4d5014610340575b600080fd5b6100b9600480360360208110156100a357600080fd5b81019080803590602001909291905050506106bc565b6040518086815260200180602001858152602001841515815260200180602001838103835287818151815260200191508051906020019080838360005b838110156101115780820151818401526020810190506100f6565b50505050905090810190601f16801561013e5780820380516001836020036101000a031916815260200191505b50838103825284818151815260200191508051906020019080838360005b8381101561017757808201518184015260208101905061015c565b50505050905090810190601f1680156101a45780820380516001836020036101000a031916815260200191505b5097505050505050505060405180910390f35b6101e3600480360360208110156101cd57600080fd5b810190808035906020019092919050505061084c565b6040518086815260200180602001858152602001841515815260200180602001838103835287818151815260200191508051906020019080838360005b8381101561023b578082015181840152602081019050610220565b50505050905090810190601f1680156102685780820380516001836020036101000a031916815260200191505b50838103825284818151815260200191508051906020019080838360005b838110156102a1578082015181840152602081019050610286565b50505050905090810190601f1680156102ce5780820380516001836020036101000a031916815260200191505b5097505050505050505060405180910390f35b6102e96109bf565b6040518080602001828103825283818151815260200191508051906020019060200280838360005b8381101561032c578082015181840152602081019050610311565b505050509050019250505060405180910390f35b610348610a17565b6040518082815260200191505060405180910390f35b6104b86004803603606081101561037457600080fd5b810190808035906020019064010000000081111561039157600080fd5b8201836020820111156103a357600080fd5b803590602001918460018302840111640100000000831117156103c557600080fd5b91908080601f016020809104026020016040519081016040528093929190818152602001838380828437600081840152601f19601f820116905080830192505050505050509192919290803590602001909291908035906020019064010000000081111561043257600080fd5b82018360208201111561044457600080fd5b8035906020019184600183028401116401000000008311171561046657600080fd5b91908080601f016020809104026020016040519081016040528093929190818152602001838380828437600081840152601f19601f820116905080830192505050505050509192919290505050610a1d565b6040518082815260200191505060405180910390f35b6104fa600480360360208110156104e457600080fd5b8101908080359060200190929190505050610b35565b6040518082815260200191505060405180910390f35b6105486004803603604081101561052657600080fd5b8101908080359060200190929190803515159060200190929190505050610b59565b005b6106ba600480360360a081101561056057600080fd5b81019080803590602001909291908035906020019064010000000081111561058757600080fd5b82018360208201111561059957600080fd5b803590602001918460018302840111640100000000831117156105bb57600080fd5b91908080601f016020809104026020016040519081016040528093929190818152602001838380828437600081840152601f19601f820116905080830192505050505050509192919290803590602001909291908035906020019064010000000081111561062857600080fd5b82018360208201111561063a57600080fd5b8035906020019184600183028401116401000000008311171561065c57600080fd5b91908080601f016020809104026020016040519081016040528093929190818152602001838380828437600081840152601f19601f820116905080830192505050505050509192919290803515159060200190929190505050610bc2565b005b600060606000806060600060016000888152602001908152602001600020905080600001548160010182600201548360030160009054906101000a900460ff1684600401838054600181600116156101000203166002900480601f0160208091040260200160405190810160405280929190818152602001828054600181600116156101000203166002900480156107955780601f1061076a57610100808354040283529160200191610795565b820191906000526020600020905b81548152906001019060200180831161077857829003601f168201915b50505050509350808054600181600116156101000203166002900480601f0160208091040260200160405190810160405280929190818152602001828054600181600116156101000203166002900480156108315780601f1061080657610100808354040283529160200191610831565b820191906000526020600020905b81548152906001019060200180831161081457829003601f168201915b50505050509050955095509550955095505091939590929450565b6001602052806000526040600020600091509050806000015490806001018054600181600116156101000203166002900480601f0160208091040260200160405190810160405280929190818152602001828054600181600116156101000203166002900480156108fe5780601f106108d3576101008083540402835291602001916108fe565b820191906000526020600020905b8154815290600101906020018083116108e157829003601f168201915b5050505050908060020154908060030160009054906101000a900460ff1690806004018054600181600116156101000203166002900480601f0160208091040260200160405190810160405280929190818152602001828054600181600116156101000203166002900480156109b55780601f1061098a576101008083540402835291602001916109b5565b820191906000526020600020905b81548152906001019060200180831161099857829003601f168201915b5050505050905085565b60606002805480602002602001604051908101604052809291908181526020018280548015610a0d57602002820191906000526020600020905b8154815260200190600101908083116109f9575b5050505050905090565b60005481565b60008042446040516020018083815260200182815260200192505050604051602081830303815290604052805190602001209050600060016000838152602001908152602001600020905081816000018190555085816001019080519060200190610a89929190610c6f565b5084816002018190555060018160030160006101000a81548160ff02191690831515021790555083816004019080519060200190610ac8929190610c6f565b5060028290806001815401808255809150506001900390600052602060002001600090919091909150557f102d25c49d33fcdb8976a3f2744e0785c98d9e43b88364859e6aec4ae82eff5c826040518082815260200191505060405180910390a181925050509392505050565b60028181548110610b4557600080fd5b906000526020600020016000915090505481565b806001600084815260200190815260200160002060030160006101000a81548160ff0219169083151502179055507fae7f59c2ef152eb4d4f56fcc655f53926d60b7e58e08ec8c79387e25adbf3331826040518082815260200191505060405180910390a15050565b600060016000878152602001908152602001600020905083816002018190555084816001019080519060200190610bfa929190610c6f565b50818160030160006101000a81548160ff02191690831515021790555082816004019080519060200190610c2f929190610c6f565b507fae7f59c2ef152eb4d4f56fcc655f53926d60b7e58e08ec8c79387e25adbf3331866040518082815260200191505060405180910390a1505050505050565b828054600181600116156101000203166002900490600052602060002090601f016020900481019282610ca55760008555610cec565b82601f10610cbe57805160ff1916838001178555610cec565b82800160010185558215610cec579182015b82811115610ceb578251825591602001919060010190610cd0565b5b509050610cf99190610cfd565b5090565b5b80821115610d16576000816000905550600101610cfe565b509056fea2646970667358221220b06e757f0f2836a0a257b8f5672c73e0124ff6dbf9358b90c47e3234e56419c264736f6c63430007040033",
  "immutableReferences": {},
  "source": "pragma solidity ^0.7.4;\r\n\r\ncontract AreaContract {\r\n    uint256 public version = 1;\r\n\r\n    struct Area {\r\n        bytes32 areaId;\r\n        string name;\r\n        bytes32 organizationId;\r\n        bool isActive;\r\n        string customJsonData;\r\n    }\r\n\r\n    mapping(bytes32 => Area) public dataMap;\r\n    bytes32[] public dataList;\r\n\r\n    event Created(bytes32 objId);\r\n    event Updated(bytes32 objId);\r\n\r\n    function create(\r\n        string memory _name,\r\n        bytes32 _organizationId,\r\n        string memory _customJsonData\r\n    ) public returns (bytes32 objId) {\r\n        bytes32 newId =\r\n            keccak256(abi.encodePacked(block.timestamp, block.difficulty));\r\n\r\n        Area storage obj = dataMap[newId];\r\n        obj.areaId = newId;\r\n        obj.name = _name;\r\n        obj.organizationId = _organizationId;\r\n        obj.isActive = true;\r\n        obj.customJsonData = _customJsonData;\r\n\r\n        dataList.push(newId);\r\n\r\n        emit Created(newId);\r\n        return (newId);\r\n    }\r\n\r\n    function update(\r\n        bytes32 objId,\r\n        string memory _name,\r\n        bytes32 _organizationId,\r\n        string memory _customJsonData,\r\n        bool _isActive\r\n    ) public {\r\n        Area storage obj = dataMap[objId];\r\n        obj.organizationId = _organizationId;\r\n        obj.name = _name;\r\n        obj.isActive = _isActive;\r\n        obj.customJsonData = _customJsonData;\r\n\r\n        emit Updated(objId);\r\n    }\r\n\r\n    function getById(bytes32 objId)\r\n        public\r\n        view\r\n        returns (\r\n            bytes32 id,\r\n            string memory name,\r\n            bytes32 organizationId,\r\n            bool isActive,\r\n            string memory customJsonData\r\n        )\r\n    {\r\n        Area storage obj = dataMap[objId];\r\n        return (\r\n            obj.areaId,\r\n            obj.name,\r\n            obj.organizationId,\r\n            obj.isActive,\r\n            obj.customJsonData\r\n        );\r\n    }\r\n\r\n    function getAll() public view returns (bytes32[] memory ids) {\r\n        return (dataList);\r\n    }\r\n\r\n    function activate(bytes32 objId, bool _isActive) public {\r\n        dataMap[objId].isActive = _isActive;\r\n        emit Updated(objId);\r\n    }\r\n}\r\n",
  "sourcePath": "D:/GitHub/supplychain_blockchain/tat_contract/contracts/AreaContract.sol",
  "compiler": {
    "name": "solc",
    "version": "0.7.4+commit.3f05b770.Emscripten.clang"
  },
  "schemaVersion": "3.3.2",
  "updatedAt": "2021-03-09T04:07:53.241Z",
  "devdoc": {
    "kind": "dev",
    "methods": {},
    "version": 1
  },
  "userdoc": {
    "kind": "user",
    "methods": {},
    "version": 1
  }
}