{
  "contract_address": "0x7355BaEF88E7298d55CC9a23463D73768a71bD8D",
  "contractName": "Auth",
  "abi": [
    {
      "inputs": [],
      "stateMutability": "nonpayable",
      "type": "constructor"
    },
    {
      "inputs": [
        {
          "internalType": "address",
          "name": "user",
          "type": "address"
        }
      ],
      "name": "isAdministrator",
      "outputs": [
        {
          "internalType": "bool",
          "name": "",
          "type": "bool"
        }
      ],
      "stateMutability": "view",
      "type": "function"
    }
  ],
  "bytecode": "0x608060405234801561001057600080fd5b50336000806101000a81548173ffffffffffffffffffffffffffffffffffffffff021916908373ffffffffffffffffffffffffffffffffffffffff160217905550610113806100606000396000f3fe6080604052348015600f57600080fd5b506004361060285760003560e01c80630a2eb30114602d575b600080fd5b606c60048036036020811015604157600080fd5b81019080803573ffffffffffffffffffffffffffffffffffffffff1690602001909291905050506084565b60405180821515815260200191505060405180910390f35b60008060009054906101000a900473ffffffffffffffffffffffffffffffffffffffff1673ffffffffffffffffffffffffffffffffffffffff168273ffffffffffffffffffffffffffffffffffffffff1614905091905056fea2646970667358221220e8f35f0ea505a98ed95ce6132b65261ebcecbf2a9f6e7c54ab7f0385a9c81e8264736f6c63430007040033",
  "immutableReferences": {},
  "source": "// contracts/access-control/Auth.sol\r\n// SPDX-License-Identifier: MIT\r\npragma solidity ^0.7.4;\r\n\r\ncontract Auth {\r\n    address private administrator;\r\n\r\n    constructor() public {\r\n        // Make the deployer of the contract the administrator\r\n        administrator = msg.sender;\r\n    }\r\n\r\n    function isAdministrator(address user) public view returns (bool) {\r\n        return user == administrator;\r\n    }\r\n}",
  "sourcePath": "D:/GitHub/supplychain_blockchain/tat_contract/contracts/access-control/Auth.sol",
  "compiler": {
    "name": "solc",
    "version": "0.7.4+commit.3f05b770.Emscripten.clang"
  },
  "schemaVersion": "3.3.2",
  "updatedAt": "2021-03-09T04:07:53.295Z",
  "devdoc": {
    "kind": "dev",
    "methods": {},
    "version": 1
  },
  "userdoc": {
    "kind": "user",
    "methods": {},
    "version": 1
  }
}