{
  "contract_address": "0xf2C3bC877Be0Ae51D246662B0eC5a240a80dc6b8",
  "contractName": "OrganizationContract",
  "abi": [
    {
      "anonymous": false,
      "inputs": [
        {
          "indexed": false,
          "internalType": "bytes32",
          "name": "objId",
          "type": "bytes32"
        }
      ],
      "name": "Created",
      "type": "event"
    },
    {
      "anonymous": false,
      "inputs": [
        {
          "indexed": false,
          "internalType": "bytes32",
          "name": "objId",
          "type": "bytes32"
        }
      ],
      "name": "Updated",
      "type": "event"
    },
    {
      "inputs": [
        {
          "internalType": "uint256",
          "name": "",
          "type": "uint256"
        }
      ],
      "name": "dataList",
      "outputs": [
        {
          "internalType": "bytes32",
          "name": "",
          "type": "bytes32"
        }
      ],
      "stateMutability": "view",
      "type": "function",
      "constant": true
    },
    {
      "inputs": [
        {
          "internalType": "bytes32",
          "name": "",
          "type": "bytes32"
        }
      ],
      "name": "dataMap",
      "outputs": [
        {
          "internalType": "bytes32",
          "name": "organizationId",
          "type": "bytes32"
        },
        {
          "internalType": "string",
          "name": "name",
          "type": "string"
        },
        {
          "internalType": "string",
          "name": "organizationAddress",
          "type": "string"
        },
        {
          "internalType": "bool",
          "name": "isActive",
          "type": "bool"
        },
        {
          "internalType": "string",
          "name": "customJsonData",
          "type": "string"
        }
      ],
      "stateMutability": "view",
      "type": "function",
      "constant": true
    },
    {
      "inputs": [],
      "name": "version",
      "outputs": [
        {
          "internalType": "uint256",
          "name": "",
          "type": "uint256"
        }
      ],
      "stateMutability": "view",
      "type": "function",
      "constant": true
    },
    {
      "inputs": [
        {
          "internalType": "string",
          "name": "_name",
          "type": "string"
        },
        {
          "internalType": "bytes32[]",
          "name": "_organizationTypeIdList",
          "type": "bytes32[]"
        },
        {
          "internalType": "string",
          "name": "_organizationAddress",
          "type": "string"
        },
        {
          "internalType": "string",
          "name": "_customJsonData",
          "type": "string"
        }
      ],
      "name": "create",
      "outputs": [
        {
          "internalType": "bytes32",
          "name": "objId",
          "type": "bytes32"
        }
      ],
      "stateMutability": "nonpayable",
      "type": "function"
    },
    {
      "inputs": [
        {
          "internalType": "bytes32",
          "name": "objId",
          "type": "bytes32"
        },
        {
          "internalType": "string",
          "name": "_name",
          "type": "string"
        },
        {
          "internalType": "bytes32[]",
          "name": "_organizationTypeIdList",
          "type": "bytes32[]"
        },
        {
          "internalType": "string",
          "name": "_organizationAddress",
          "type": "string"
        },
        {
          "internalType": "string",
          "name": "_customJsonData",
          "type": "string"
        },
        {
          "internalType": "bool",
          "name": "_isActive",
          "type": "bool"
        }
      ],
      "name": "update",
      "outputs": [],
      "stateMutability": "nonpayable",
      "type": "function"
    },
    {
      "inputs": [
        {
          "internalType": "bytes32",
          "name": "objId",
          "type": "bytes32"
        }
      ],
      "name": "getById",
      "outputs": [
        {
          "internalType": "bytes32",
          "name": "id",
          "type": "bytes32"
        },
        {
          "internalType": "string",
          "name": "name",
          "type": "string"
        },
        {
          "internalType": "bytes32[]",
          "name": "organizationTypeIdList",
          "type": "bytes32[]"
        },
        {
          "internalType": "string",
          "name": "organizationAddress",
          "type": "string"
        },
        {
          "internalType": "bool",
          "name": "isActive",
          "type": "bool"
        },
        {
          "internalType": "string",
          "name": "customJsonData",
          "type": "string"
        }
      ],
      "stateMutability": "view",
      "type": "function",
      "constant": true
    },
    {
      "inputs": [],
      "name": "getAll",
      "outputs": [
        {
          "internalType": "bytes32[]",
          "name": "ids",
          "type": "bytes32[]"
        }
      ],
      "stateMutability": "view",
      "type": "function",
      "constant": true
    },
    {
      "inputs": [
        {
          "internalType": "bytes32",
          "name": "objId",
          "type": "bytes32"
        },
        {
          "internalType": "bool",
          "name": "_isActive",
          "type": "bool"
        }
      ],
      "name": "activate",
      "outputs": [],
      "stateMutability": "nonpayable",
      "type": "function"
    }
  ],
  "bytecode": "0x6080604052600160005534801561001557600080fd5b506112ef806100256000396000f3fe608060405234801561001057600080fd5b50600436106100885760003560e01c8063af4a74cf1161005b578063af4a74cf14610470578063c8762579146104b2578063d6ffaa59146104ec578063dc01405d1461077f57610088565b80632dff0d0d1461008d57806346bcad621461026457806353ed5143146103f357806354fd4d5014610452575b600080fd5b6100b9600480360360208110156100a357600080fd5b8101908080359060200190929190505050610a10565b6040518087815260200180602001806020018060200186151581526020018060200185810385528a818151815260200191508051906020019080838360005b838110156101135780820151818401526020810190506100f8565b50505050905090810190601f1680156101405780820380516001836020036101000a031916815260200191505b50858103845289818151815260200191508051906020019060200280838360005b8381101561017c578082015181840152602081019050610161565b50505050905001858103835288818151815260200191508051906020019080838360005b838110156101bb5780820151818401526020810190506101a0565b50505050905090810190601f1680156101e85780820380516001836020036101000a031916815260200191505b50858103825286818151815260200191508051906020019080838360005b83811015610221578082015181840152602081019050610206565b50505050905090810190601f16801561024e5780820380516001836020036101000a031916815260200191505b509a505050505050505050505060405180910390f35b6102906004803603602081101561027a57600080fd5b8101908080359060200190929190505050610c95565b604051808681526020018060200180602001851515815260200180602001848103845288818151815260200191508051906020019080838360005b838110156102e65780820151818401526020810190506102cb565b50505050905090810190601f1680156103135780820380516001836020036101000a031916815260200191505b50848103835287818151815260200191508051906020019080838360005b8381101561034c578082015181840152602081019050610331565b50505050905090810190601f1680156103795780820380516001836020036101000a031916815260200191505b50848103825285818151815260200191508051906020019080838360005b838110156103b2578082015181840152602081019050610397565b50505050905090810190601f1680156103df5780820380516001836020036101000a031916815260200191505b509850505050505050505060405180910390f35b6103fb610ea0565b6040518080602001828103825283818151815260200191508051906020019060200280838360005b8381101561043e578082015181840152602081019050610423565b505050509050019250505060405180910390f35b61045a610ef8565b6040518082815260200191505060405180910390f35b61049c6004803603602081101561048657600080fd5b8101908080359060200190929190505050610efe565b6040518082815260200191505060405180910390f35b6104ea600480360360408110156104c857600080fd5b8101908080359060200190929190803515159060200190929190505050610f22565b005b61077d600480360360c081101561050257600080fd5b81019080803590602001909291908035906020019064010000000081111561052957600080fd5b82018360208201111561053b57600080fd5b8035906020019184600183028401116401000000008311171561055d57600080fd5b91908080601f016020809104026020016040519081016040528093929190818152602001838380828437600081840152601f19601f820116905080830192505050505050509192919290803590602001906401000000008111156105c057600080fd5b8201836020820111156105d257600080fd5b803590602001918460208302840111640100000000831117156105f457600080fd5b919080806020026020016040519081016040528093929190818152602001838360200280828437600081840152601f19601f8201169050808301925050505050505091929192908035906020019064010000000081111561065457600080fd5b82018360208201111561066657600080fd5b8035906020019184600183028401116401000000008311171561068857600080fd5b91908080601f016020809104026020016040519081016040528093929190818152602001838380828437600081840152601f19601f820116905080830192505050505050509192919290803590602001906401000000008111156106eb57600080fd5b8201836020820111156106fd57600080fd5b8035906020019184600183028401116401000000008311171561071f57600080fd5b91908080601f016020809104026020016040519081016040528093929190818152602001838380828437600081840152601f19601f820116905080830192505050505050509192919290803515159060200190929190505050610f8b565b005b6109fa6004803603608081101561079557600080fd5b81019080803590602001906401000000008111156107b257600080fd5b8201836020820111156107c457600080fd5b803590602001918460018302840111640100000000831117156107e657600080fd5b91908080601f016020809104026020016040519081016040528093929190818152602001838380828437600081840152601f19601f8201169050808301925050505050505091929192908035906020019064010000000081111561084957600080fd5b82018360208201111561085b57600080fd5b8035906020019184602083028401116401000000008311171561087d57600080fd5b919080806020026020016040519081016040528093929190818152602001838360200280828437600081840152601f19601f820116905080830192505050505050509192919290803590602001906401000000008111156108dd57600080fd5b8201836020820111156108ef57600080fd5b8035906020019184600183028401116401000000008311171561091157600080fd5b91908080601f016020809104026020016040519081016040528093929190818152602001838380828437600081840152601f19601f8201169050808301925050505050505091929192908035906020019064010000000081111561097457600080fd5b82018360208201111561098657600080fd5b803590602001918460018302840111640100000000831117156109a857600080fd5b91908080601f016020809104026020016040519081016040528093929190818152602001838380828437600081840152601f19601f820116905080830192505050505050509192919290505050611062565b6040518082815260200191505060405180910390f35b6000606080606060006060600060016000898152602001908152602001600020905080600001548160010182600201836003018460040160009054906101000a900460ff1685600501848054600181600116156101000203166002900480601f016020809104026020016040519081016040528092919081815260200182805460018160011615610100020316600290048015610aee5780601f10610ac357610100808354040283529160200191610aee565b820191906000526020600020905b815481529060010190602001808311610ad157829003601f168201915b5050505050945083805480602002602001604051908101604052809291908181526020018280548015610b4057602002820191906000526020600020905b815481526020019060010190808311610b2c575b50505050509350828054600181600116156101000203166002900480601f016020809104026020016040519081016040528092919081815260200182805460018160011615610100020316600290048015610bdc5780601f10610bb157610100808354040283529160200191610bdc565b820191906000526020600020905b815481529060010190602001808311610bbf57829003601f168201915b50505050509250808054600181600116156101000203166002900480601f016020809104026020016040519081016040528092919081815260200182805460018160011615610100020316600290048015610c785780601f10610c4d57610100808354040283529160200191610c78565b820191906000526020600020905b815481529060010190602001808311610c5b57829003601f168201915b505050505090509650965096509650965096505091939550919395565b6001602052806000526040600020600091509050806000015490806001018054600181600116156101000203166002900480601f016020809104026020016040519081016040528092919081815260200182805460018160011615610100020316600290048015610d475780601f10610d1c57610100808354040283529160200191610d47565b820191906000526020600020905b815481529060010190602001808311610d2a57829003601f168201915b505050505090806003018054600181600116156101000203166002900480601f016020809104026020016040519081016040528092919081815260200182805460018160011615610100020316600290048015610de55780601f10610dba57610100808354040283529160200191610de5565b820191906000526020600020905b815481529060010190602001808311610dc857829003601f168201915b5050505050908060040160009054906101000a900460ff1690806005018054600181600116156101000203166002900480601f016020809104026020016040519081016040528092919081815260200182805460018160011615610100020316600290048015610e965780601f10610e6b57610100808354040283529160200191610e96565b820191906000526020600020905b815481529060010190602001808311610e7957829003601f168201915b5050505050905085565b60606002805480602002602001604051908101604052809291908181526020018280548015610eee57602002820191906000526020600020905b815481526020019060010190808311610eda575b5050505050905090565b60005481565b60028181548110610f0e57600080fd5b906000526020600020016000915090505481565b806001600084815260200190815260200160002060040160006101000a81548160ff0219169083151502179055507fae7f59c2ef152eb4d4f56fcc655f53926d60b7e58e08ec8c79387e25adbf3331826040518082815260200191505060405180910390a15050565b600060016000888152602001908152602001600020905084816002019080519060200190610fba9291906111a4565b5083816003019080519060200190610fd39291906111f1565b5085816001019080519060200190610fec9291906111f1565b50818160040160006101000a81548160ff021916908315150217905550828160050190805190602001906110219291906111f1565b507fae7f59c2ef152eb4d4f56fcc655f53926d60b7e58e08ec8c79387e25adbf3331876040518082815260200191505060405180910390a150505050505050565b600080424460405160200180838152602001828152602001925050506040516020818303038152906040528051906020012090506000600160008381526020019081526020016000209050818160000181905550858160020190805190602001906110ce9291906111a4565b5060018160040160006101000a81548160ff021916908315150217905550848160030190805190602001906111049291906111f1565b508681600101908051906020019061111d9291906111f1565b50838160050190805190602001906111369291906111f1565b5060028290806001815401808255809150506001900390600052602060002001600090919091909150557f102d25c49d33fcdb8976a3f2744e0785c98d9e43b88364859e6aec4ae82eff5c826040518082815260200191505060405180910390a18192505050949350505050565b8280548282559060005260206000209081019282156111e0579160200282015b828111156111df5782518255916020019190600101906111c4565b5b5090506111ed919061127f565b5090565b828054600181600116156101000203166002900490600052602060002090601f016020900481019282611227576000855561126e565b82601f1061124057805160ff191683800117855561126e565b8280016001018555821561126e579182015b8281111561126d578251825591602001919060010190611252565b5b50905061127b919061129c565b5090565b5b80821115611298576000816000905550600101611280565b5090565b5b808211156112b557600081600090555060010161129d565b509056fea26469706673582212207c2a5c4625690a978523aa0237870039c845002463d9b5b7e7614126a4842c1364736f6c63430007040033",
  "immutableReferences": {},
  "source": "pragma solidity ^0.7.4;\r\n\r\ncontract OrganizationContract {\r\n    uint256 public version = 1;\r\n\r\n    event Created(bytes32 objId);\r\n    event Updated(bytes32 objId);\r\n\r\n    struct Organization {\r\n        bytes32 organizationId;\r\n        string name;\r\n        bytes32[] organizationTypeIdList;\r\n        string organizationAddress;\r\n        bool isActive;\r\n        string customJsonData;\r\n    }\r\n    mapping(bytes32 => Organization) public dataMap;\r\n    bytes32[] public dataList;\r\n\r\n    /*\r\n        Organization\r\n    */\r\n    function create(\r\n        string memory _name,\r\n        bytes32[] memory _organizationTypeIdList,\r\n        string memory _organizationAddress,\r\n        string memory _customJsonData\r\n    ) public returns (bytes32 objId) {\r\n        bytes32 newId =\r\n            keccak256(abi.encodePacked(block.timestamp, block.difficulty));\r\n\r\n        Organization storage obj = dataMap[newId];\r\n        obj.organizationId = newId;\r\n        obj.organizationTypeIdList = _organizationTypeIdList;\r\n        obj.isActive = true;\r\n        obj.organizationAddress = _organizationAddress;\r\n        obj.name = _name;\r\n        obj.customJsonData = _customJsonData;\r\n\r\n        dataList.push(newId);\r\n\r\n        emit Created(newId);\r\n        return (newId);\r\n    }\r\n\r\n    function update(\r\n        bytes32 objId,\r\n        string memory _name,\r\n        bytes32[] memory _organizationTypeIdList,\r\n        string memory _organizationAddress,\r\n        string memory _customJsonData,\r\n        bool _isActive\r\n    ) public {\r\n        Organization storage obj = dataMap[objId];\r\n        obj.organizationTypeIdList = _organizationTypeIdList;\r\n        obj.organizationAddress = _organizationAddress;\r\n        obj.name = _name;\r\n        obj.isActive = _isActive;\r\n        obj.customJsonData = _customJsonData;\r\n\r\n        emit Updated(objId);\r\n    }\r\n\r\n    function getById(bytes32 objId)\r\n        public\r\n        view\r\n        returns (\r\n            bytes32 id,\r\n            string memory name,\r\n            bytes32[] memory organizationTypeIdList,\r\n            string memory organizationAddress,\r\n            bool isActive,\r\n            string memory customJsonData\r\n        )\r\n    {\r\n        Organization storage obj = dataMap[objId];\r\n        return (\r\n            obj.organizationId,\r\n            obj.name,\r\n            obj.organizationTypeIdList,\r\n            obj.organizationAddress,\r\n            obj.isActive,\r\n            obj.customJsonData\r\n        );\r\n    }\r\n\r\n    function getAll() public view returns (bytes32[] memory ids) {\r\n        return (dataList);\r\n    }\r\n\r\n    function activate(bytes32 objId, bool _isActive) public {\r\n        dataMap[objId].isActive = _isActive;\r\n        emit Updated(objId);\r\n    }\r\n}\r\n",
  "sourcePath": "D:/GitHub/supplychain_blockchain/tat_contract/contracts/OrganizationContract.sol",
  "compiler": {
    "name": "solc",
    "version": "0.7.4+commit.3f05b770.Emscripten.clang"
  },
  "schemaVersion": "3.3.2",
  "updatedAt": "2021-03-10T05:17:27.769Z",
  "networkType": "ethereum",
  "devdoc": {
    "kind": "dev",
    "methods": {},
    "version": 1
  },
  "userdoc": {
    "kind": "user",
    "methods": {},
    "version": 1
  }
}