{
  "contract_address": "0x2d902C43E9fc91d429279362b137f7C010715709",
  "contractName": "TrailInfoContract",
  "abi": [
    {
      "anonymous": false,
      "inputs": [
        {
          "indexed": false,
          "internalType": "bytes32",
          "name": "objId",
          "type": "bytes32"
        }
      ],
      "name": "Created",
      "type": "event"
    },
    {
      "anonymous": false,
      "inputs": [
        {
          "indexed": false,
          "internalType": "bytes32",
          "name": "objId",
          "type": "bytes32"
        }
      ],
      "name": "Updated",
      "type": "event"
    },
    {
      "inputs": [
        {
          "internalType": "uint256",
          "name": "",
          "type": "uint256"
        }
      ],
      "name": "productTrailList",
      "outputs": [
        {
          "internalType": "bytes32",
          "name": "",
          "type": "bytes32"
        }
      ],
      "stateMutability": "view",
      "type": "function",
      "constant": true
    },
    {
      "inputs": [
        {
          "internalType": "bytes32",
          "name": "_productId",
          "type": "bytes32"
        },
        {
          "internalType": "bytes32",
          "name": "_activityId",
          "type": "bytes32"
        },
        {
          "internalType": "bytes32",
          "name": "_profileId",
          "type": "bytes32"
        },
        {
          "internalType": "bytes32",
          "name": "_areaId",
          "type": "bytes32"
        },
        {
          "internalType": "string",
          "name": "_gps",
          "type": "string"
        },
        {
          "internalType": "string",
          "name": "_remarks",
          "type": "string"
        },
        {
          "internalType": "string",
          "name": "_customJsonData",
          "type": "string"
        }
      ],
      "name": "addProductTrail",
      "outputs": [
        {
          "internalType": "bytes32",
          "name": "objId",
          "type": "bytes32"
        }
      ],
      "stateMutability": "nonpayable",
      "type": "function"
    },
    {
      "inputs": [],
      "name": "getProductList",
      "outputs": [
        {
          "internalType": "bytes32[]",
          "name": "productList",
          "type": "bytes32[]"
        }
      ],
      "stateMutability": "view",
      "type": "function",
      "constant": true
    },
    {
      "inputs": [
        {
          "internalType": "bytes32",
          "name": "_productId",
          "type": "bytes32"
        }
      ],
      "name": "getProductTrailList",
      "outputs": [
        {
          "internalType": "bytes32[]",
          "name": "productTrailList",
          "type": "bytes32[]"
        }
      ],
      "stateMutability": "view",
      "type": "function",
      "constant": true
    },
    {
      "inputs": [
        {
          "internalType": "bytes32",
          "name": "_productId",
          "type": "bytes32"
        },
        {
          "internalType": "bytes32",
          "name": "_trailId",
          "type": "bytes32"
        }
      ],
      "name": "getProductTrail",
      "outputs": [
        {
          "internalType": "bytes32",
          "name": "productId",
          "type": "bytes32"
        },
        {
          "internalType": "bytes32",
          "name": "activityId",
          "type": "bytes32"
        },
        {
          "internalType": "bytes32",
          "name": "profileId",
          "type": "bytes32"
        },
        {
          "internalType": "bytes32",
          "name": "areaId",
          "type": "bytes32"
        },
        {
          "internalType": "string",
          "name": "gps",
          "type": "string"
        },
        {
          "internalType": "string",
          "name": "remarks",
          "type": "string"
        },
        {
          "internalType": "bool",
          "name": "isActive",
          "type": "bool"
        },
        {
          "internalType": "string",
          "name": "customJsonData",
          "type": "string"
        },
        {
          "internalType": "uint256",
          "name": "createdDate",
          "type": "uint256"
        }
      ],
      "stateMutability": "view",
      "type": "function",
      "constant": true
    }
  ],
  "bytecode": "0x608060405234801561001057600080fd5b50610bc2806100206000396000f3fe608060405234801561001057600080fd5b50600436106100575760003560e01c8063262e89fa1461005c57806333159aa01461028157806334d2c0ad1461043657806375835b6514610495578063f96b86f0146104d7575b600080fd5b61026b600480360360e081101561007257600080fd5b8101908080359060200190929190803590602001909291908035906020019092919080359060200190929190803590602001906401000000008111156100b757600080fd5b8201836020820111156100c957600080fd5b803590602001918460018302840111640100000000831117156100eb57600080fd5b91908080601f016020809104026020016040519081016040528093929190818152602001838380828437600081840152601f19601f8201169050808301925050505050505091929192908035906020019064010000000081111561014e57600080fd5b82018360208201111561016057600080fd5b8035906020019184600183028401116401000000008311171561018257600080fd5b91908080601f016020809104026020016040519081016040528093929190818152602001838380828437600081840152601f19601f820116905080830192505050505050509192919290803590602001906401000000008111156101e557600080fd5b8201836020820111156101f757600080fd5b8035906020019184600183028401116401000000008311171561021957600080fd5b91908080601f016020809104026020016040519081016040528093929190818152602001838380828437600081840152601f19601f82011690508083019250505050505050919291929050505061055a565b6040518082815260200191505060405180910390f35b6102b76004803603604081101561029757600080fd5b810190808035906020019092919080359060200190929190505050610738565b604051808a81526020018981526020018881526020018781526020018060200180602001861515815260200180602001858152602001848103845289818151815260200191508051906020019080838360005b8381101561032557808201518184015260208101905061030a565b50505050905090810190601f1680156103525780820380516001836020036101000a031916815260200191505b50848103835288818151815260200191508051906020019080838360005b8381101561038b578082015181840152602081019050610370565b50505050905090810190601f1680156103b85780820380516001836020036101000a031916815260200191505b50848103825286818151815260200191508051906020019080838360005b838110156103f15780820151818401526020810190506103d6565b50505050905090810190601f16801561041e5780820380516001836020036101000a031916815260200191505b509c5050505050505050505050505060405180910390f35b61043e61099b565b6040518080602001828103825283818151815260200191508051906020019060200280838360005b83811015610481578082015181840152602081019050610466565b505050509050019250505060405180910390f35b6104c1600480360360208110156104ab57600080fd5b81019080803590602001909291905050506109f3565b6040518082815260200191505060405180910390f35b610503600480360360208110156104ed57600080fd5b8101908080359060200190929190505050610a17565b6040518080602001828103825283818151815260200191508051906020019060200280838360005b8381101561054657808201518184015260208101905061052b565b505050509050019250505060405180910390f35b6000806000808a81526020019081526020016000209050888160000181905550600015156105878a610a84565b151514156105b95760018990806001815401808255809150506001900390600052602060002001600090919091909150555b60004244604051602001808381526020018281526020019250505060405160208183030381529060405280519060200120905060008060008c8152602001908152602001600020600101600083815260200190815260200160002090508181600001819055508a81600101819055508981600201819055508881600301819055508781600401819055508681600501908051906020019061065b929190610ae1565b5085816006019080519060200190610674929190610ae1565b5060018160070160006101000a81548160ff021916908315150217905550848160080190805190602001906106aa929190610ae1565b504281600901819055506000808c81526020019081526020016000206002018290806001815401808255809150506001900390600052602060002001600090919091909150557f102d25c49d33fcdb8976a3f2744e0785c98d9e43b88364859e6aec4ae82eff5c826040518082815260200191505060405180910390a1819350505050979650505050505050565b600080600080606080600060606000806000808d815260200190815260200160002060010160008c81526020019081526020016000209050806001015481600201548260030154836004015484600501856006018660070160009054906101000a900460ff16876008018860090154848054600181600116156101000203166002900480601f01602080910402602001604051908101604052809291908181526020018280546001816001161561010002031660029004801561083c5780601f106108115761010080835404028352916020019161083c565b820191906000526020600020905b81548152906001019060200180831161081f57829003601f168201915b50505050509450838054600181600116156101000203166002900480601f0160208091040260200160405190810160405280929190818152602001828054600181600116156101000203166002900480156108d85780601f106108ad576101008083540402835291602001916108d8565b820191906000526020600020905b8154815290600101906020018083116108bb57829003601f168201915b50505050509350818054600181600116156101000203166002900480601f0160208091040260200160405190810160405280929190818152602001828054600181600116156101000203166002900480156109745780601f1061094957610100808354040283529160200191610974565b820191906000526020600020905b81548152906001019060200180831161095757829003601f168201915b50505050509150995099509950995099509950995099509950509295985092959850929598565b606060018054806020026020016040519081016040528092919081815260200182805480156109e957602002820191906000526020600020905b8154815260200190600101908083116109d5575b5050505050905090565b60018181548110610a0357600080fd5b906000526020600020016000915090505481565b6060600080838152602001908152602001600020600201805480602002602001604051908101604052809291908181526020018280548015610a7857602002820191906000526020600020905b815481526020019060010190808311610a64575b50505050509050919050565b600080600090505b600180549050811015610ad657600060018281548110610aa857fe5b9060005260206000200154905083811415610ac857600192505050610adc565b508080600101915050610a8c565b50600090505b919050565b828054600181600116156101000203166002900490600052602060002090601f016020900481019282610b175760008555610b5e565b82601f10610b3057805160ff1916838001178555610b5e565b82800160010185558215610b5e579182015b82811115610b5d578251825591602001919060010190610b42565b5b509050610b6b9190610b6f565b5090565b5b80821115610b88576000816000905550600101610b70565b509056fea2646970667358221220268d9f87201a4c47d853165e45318a01b79132504342211ebb1867e3339ea85464736f6c63430007040033",
  "immutableReferences": {},
  "source": "pragma solidity ^0.7.4;\r\n\r\ncontract TrailInfoContract {\r\n    struct TrailInfo {\r\n        bytes32 trackHistoryId;\r\n        bytes32 productId;\r\n        bytes32 activityId;\r\n        bytes32 profileId;\r\n        bytes32 areaId;\r\n        string gps;\r\n        string remarks;\r\n        bool isActive;\r\n        string customJsonData;\r\n        uint createdDate;\r\n    }\r\n    \r\n    struct ProductTrail {\r\n        bytes32 productId;\r\n        mapping(bytes32 => TrailInfo)  trailInfoMap;\r\n        bytes32[] trailInfoList;\r\n    }\r\n\r\n    mapping(bytes32 => ProductTrail)  productTrailMap;\r\n    bytes32[] public productTrailList;\r\n\r\n    event Created(bytes32 objId);\r\n    event Updated(bytes32 objId);\r\n\r\n    function isProductExist(bytes32 productId)\r\n        private returns(bool result)\r\n    {\r\n        for(uint i = 0; i < productTrailList.length; i++) {\r\n            bytes32 product = productTrailList[i];\r\n            if(product == productId){\r\n                return true;\r\n            }\r\n        }\r\n        return false;\r\n    }\r\n\r\n    function addProductTrail(\r\n        bytes32 _productId,\r\n        bytes32 _activityId,\r\n        bytes32 _profileId,\r\n        bytes32 _areaId,\r\n        string memory _gps,\r\n        string memory _remarks,\r\n        string memory _customJsonData\r\n        \r\n    ) public returns (bytes32 objId) {\r\n        \r\n        ProductTrail storage productTrail = productTrailMap[_productId];\r\n        productTrail.productId = _productId;\r\n        \r\n        if(isProductExist(_productId) == false){\r\n            productTrailList.push(_productId);\r\n        }\r\n        \r\n        bytes32 trailId = keccak256(abi.encodePacked(block.timestamp, block.difficulty));\r\n        TrailInfo storage trailInfo = productTrailMap[_productId].trailInfoMap[trailId];\r\n        trailInfo.trackHistoryId = trailId;\r\n        trailInfo.productId = _productId;\r\n        trailInfo.activityId = _activityId;\r\n        trailInfo.profileId = _profileId;\r\n        trailInfo.areaId = _areaId;\r\n        trailInfo.gps = _gps;\r\n        trailInfo.remarks = _remarks;\r\n        trailInfo.isActive = true;\r\n        trailInfo.customJsonData = _customJsonData;\r\n        trailInfo.createdDate = block.timestamp;\r\n        \r\n        productTrailMap[_productId].trailInfoList.push(trailId);\r\n\r\n        emit Created(trailId);\r\n        return trailId;\r\n    }\r\n\r\n    function getProductList() public view returns (bytes32[] memory productList)\r\n    {\r\n        return (productTrailList);\r\n    }\r\n\r\n    function getProductTrailList(bytes32  _productId)\r\n        public\r\n        view\r\n        returns (bytes32[] memory productTrailList)\r\n    {\r\n        return (productTrailMap[_productId].trailInfoList);\r\n    }\r\n\r\n    function getProductTrail(bytes32  _productId, bytes32  _trailId)\r\n        public\r\n        view\r\n        returns (bytes32 productId,\r\n                bytes32 activityId,\r\n                bytes32 profileId,\r\n                bytes32 areaId,\r\n                string memory gps,\r\n                string memory remarks,\r\n                bool  isActive,\r\n                string memory customJsonData,\r\n                uint createdDate)\r\n    {\r\n        TrailInfo storage obj = productTrailMap[_productId].trailInfoMap[_trailId];\r\n        return (\r\n            obj.productId,\r\n            obj.activityId,\r\n            obj.profileId,\r\n            obj.areaId,\r\n            obj.gps,\r\n            obj.remarks,\r\n            obj.isActive,\r\n            obj.customJsonData,\r\n            obj.createdDate\r\n            );\r\n    }\r\n\r\n}\r\n",
  "sourcePath": "D:/GitHub/supplychain_blockchain/tat_contract/contracts/TrailInfoContract.sol",
  "compiler": {
    "name": "solc",
    "version": "0.7.4+commit.3f05b770.Emscripten.clang"
  },
  "schemaVersion": "3.3.2",
  "updatedAt": "2021-03-12T10:52:42.373Z",
  "networkType": "ethereum",
  "devdoc": {
    "kind": "dev",
    "methods": {},
    "version": 1
  },
  "userdoc": {
    "kind": "user",
    "methods": {},
    "version": 1
  }
}